{
	"commit-reveal.sol": {
		"CommitReveal": {
			"abi": [
				{
					"anonymous": false,
					"inputs": [
						{
							"indexed": false,
							"internalType": "address",
							"name": "sender",
							"type": "address"
						},
						{
							"indexed": false,
							"internalType": "bytes32",
							"name": "dataHash",
							"type": "bytes32"
						},
						{
							"indexed": false,
							"internalType": "uint64",
							"name": "block",
							"type": "uint64"
						}
					],
					"name": "CommitHash",
					"type": "event"
				},
				{
					"anonymous": false,
					"inputs": [
						{
							"indexed": false,
							"internalType": "address",
							"name": "sender",
							"type": "address"
						},
						{
							"indexed": false,
							"internalType": "uint8",
							"name": "answer",
							"type": "uint8"
						},
						{
							"indexed": false,
							"internalType": "bytes32",
							"name": "salt",
							"type": "bytes32"
						}
					],
					"name": "RevealAnswer",
					"type": "event"
				},
				{
					"inputs": [
						{
							"internalType": "uint8",
							"name": "data",
							"type": "uint8"
						}
					],
					"name": "Hash",
					"outputs": [
						{
							"internalType": "bytes32",
							"name": "",
							"type": "bytes32"
						}
					],
					"stateMutability": "view",
					"type": "function"
				},
				{
					"inputs": [
						{
							"internalType": "bytes32",
							"name": "dataHash",
							"type": "bytes32"
						}
					],
					"name": "commit",
					"outputs": [],
					"stateMutability": "nonpayable",
					"type": "function"
				},
				{
					"inputs": [
						{
							"internalType": "address",
							"name": "",
							"type": "address"
						}
					],
					"name": "commits",
					"outputs": [
						{
							"internalType": "bytes32",
							"name": "commit",
							"type": "bytes32"
						},
						{
							"internalType": "uint64",
							"name": "block",
							"type": "uint64"
						},
						{
							"internalType": "bool",
							"name": "revealed",
							"type": "bool"
						}
					],
					"stateMutability": "view",
					"type": "function"
				},
				{
					"inputs": [
						{
							"internalType": "uint8",
							"name": "data",
							"type": "uint8"
						},
						{
							"internalType": "bytes32",
							"name": "salt",
							"type": "bytes32"
						}
					],
					"name": "getAnswerHashSalt",
					"outputs": [
						{
							"internalType": "bytes32",
							"name": "",
							"type": "bytes32"
						}
					],
					"stateMutability": "view",
					"type": "function"
				},
				{
					"inputs": [],
					"name": "max",
					"outputs": [
						{
							"internalType": "uint8",
							"name": "",
							"type": "uint8"
						}
					],
					"stateMutability": "view",
					"type": "function"
				},
				{
					"inputs": [
						{
							"internalType": "uint8",
							"name": "answer",
							"type": "uint8"
						},
						{
							"internalType": "bytes32",
							"name": "salt",
							"type": "bytes32"
						}
					],
					"name": "revealAnswer",
					"outputs": [],
					"stateMutability": "nonpayable",
					"type": "function"
				}
			],
			"devdoc": {
				"kind": "dev",
				"methods": {},
				"version": 1
			},
			"evm": {
				"assembly": "    /* \"commit-reveal.sol\":70:1448  contract CommitReveal {... */\n  mstore(0x40, 0x80)\n    /* \"commit-reveal.sol\":116:119  100 */\n  0x64\n    /* \"commit-reveal.sol\":97:119  uint8 public max = 100 */\n  0x00\n  dup1\n  0x0100\n  exp\n  dup2\n  sload\n  dup2\n  0xff\n  mul\n  not\n  and\n  swap1\n  dup4\n  0xff\n  and\n  mul\n  or\n  swap1\n  sstore\n  pop\n    /* \"commit-reveal.sol\":70:1448  contract CommitReveal {... */\n  callvalue\n  dup1\n  iszero\n  tag_1\n  jumpi\n  0x00\n  dup1\n  revert\ntag_1:\n  pop\n  dataSize(sub_0)\n  dup1\n  dataOffset(sub_0)\n  0x00\n  codecopy\n  0x00\n  return\nstop\n\nsub_0: assembly {\n        /* \"commit-reveal.sol\":70:1448  contract CommitReveal {... */\n      mstore(0x40, 0x80)\n      callvalue\n      dup1\n      iszero\n      tag_1\n      jumpi\n      0x00\n      dup1\n      revert\n    tag_1:\n      pop\n      jumpi(tag_2, lt(calldatasize, 0x04))\n      shr(0xe0, calldataload(0x00))\n      dup1\n      0x1a4ec7ba\n      eq\n      tag_3\n      jumpi\n      dup1\n      0x6ac5db19\n      eq\n      tag_4\n      jumpi\n      dup1\n      0x6f384b8e\n      eq\n      tag_5\n      jumpi\n      dup1\n      0x7b43a8e6\n      eq\n      tag_6\n      jumpi\n      dup1\n      0x9f9a4df3\n      eq\n      tag_7\n      jumpi\n      dup1\n      0xf14fcbc8\n      eq\n      tag_8\n      jumpi\n    tag_2:\n      0x00\n      dup1\n      revert\n        /* \"commit-reveal.sol\":1294:1446  function getAnswerHashSalt(uint8 data,bytes32 salt) public view returns(bytes32){... */\n    tag_3:\n      tag_9\n      0x04\n      dup1\n      calldatasize\n      sub\n      dup2\n      add\n      swap1\n      tag_10\n      swap2\n      swap1\n      tag_11\n      jump\t// in\n    tag_10:\n      tag_12\n      jump\t// in\n    tag_9:\n      mload(0x40)\n      tag_13\n      swap2\n      swap1\n      tag_14\n      jump\t// in\n    tag_13:\n      mload(0x40)\n      dup1\n      swap2\n      sub\n      swap1\n      return\n        /* \"commit-reveal.sol\":97:119  uint8 public max = 100 */\n    tag_4:\n      tag_15\n      tag_16\n      jump\t// in\n    tag_15:\n      mload(0x40)\n      tag_17\n      swap2\n      swap1\n      tag_18\n      jump\t// in\n    tag_17:\n      mload(0x40)\n      dup1\n      swap2\n      sub\n      swap1\n      return\n        /* \"commit-reveal.sol\":1169:1290  function Hash(uint8 data) public view returns(bytes32) {... */\n    tag_5:\n      tag_19\n      0x04\n      dup1\n      calldatasize\n      sub\n      dup2\n      add\n      swap1\n      tag_20\n      swap2\n      swap1\n      tag_21\n      jump\t// in\n    tag_20:\n      tag_22\n      jump\t// in\n    tag_19:\n      mload(0x40)\n      tag_23\n      swap2\n      swap1\n      tag_14\n      jump\t// in\n    tag_23:\n      mload(0x40)\n      dup1\n      swap2\n      sub\n      swap1\n      return\n        /* \"commit-reveal.sol\":204:246  mapping (address => Commit) public commits */\n    tag_6:\n      tag_24\n      0x04\n      dup1\n      calldatasize\n      sub\n      dup2\n      add\n      swap1\n      tag_25\n      swap2\n      swap1\n      tag_26\n      jump\t// in\n    tag_25:\n      tag_27\n      jump\t// in\n    tag_24:\n      mload(0x40)\n      tag_28\n      swap4\n      swap3\n      swap2\n      swap1\n      tag_29\n      jump\t// in\n    tag_28:\n      mload(0x40)\n      dup1\n      swap2\n      sub\n      swap1\n      return\n        /* \"commit-reveal.sol\":594:1099  function revealAnswer(uint8 answer,bytes32 salt) public {... */\n    tag_7:\n      tag_30\n      0x04\n      dup1\n      calldatasize\n      sub\n      dup2\n      add\n      swap1\n      tag_31\n      swap2\n      swap1\n      tag_11\n      jump\t// in\n    tag_31:\n      tag_32\n      jump\t// in\n    tag_30:\n      stop\n        /* \"commit-reveal.sol\":251:522  function commit(bytes32 dataHash) public {... */\n    tag_8:\n      tag_33\n      0x04\n      dup1\n      calldatasize\n      sub\n      dup2\n      add\n      swap1\n      tag_34\n      swap2\n      swap1\n      tag_35\n      jump\t// in\n    tag_34:\n      tag_36\n      jump\t// in\n    tag_33:\n      stop\n        /* \"commit-reveal.sol\":1294:1446  function getAnswerHashSalt(uint8 data,bytes32 salt) public view returns(bytes32){... */\n    tag_12:\n        /* \"commit-reveal.sol\":1366:1373  bytes32 */\n      0x00\n        /* \"commit-reveal.sol\":1422:1426  this */\n      address\n        /* \"commit-reveal.sol\":1429:1433  data */\n      dup4\n        /* \"commit-reveal.sol\":1435:1439  salt */\n      dup4\n        /* \"commit-reveal.sol\":1397:1440  abi.encodePacked(address(this), data, salt) */\n      add(0x20, mload(0x40))\n      tag_38\n      swap4\n      swap3\n      swap2\n      swap1\n      tag_39\n      jump\t// in\n    tag_38:\n      mload(0x40)\n      0x20\n      dup2\n      dup4\n      sub\n      sub\n      dup2\n      mstore\n      swap1\n      0x40\n      mstore\n        /* \"commit-reveal.sol\":1387:1441  keccak256(abi.encodePacked(address(this), data, salt)) */\n      dup1\n      mload\n      swap1\n      0x20\n      add\n      keccak256\n        /* \"commit-reveal.sol\":1380:1441  return keccak256(abi.encodePacked(address(this), data, salt)) */\n      swap1\n      pop\n        /* \"commit-reveal.sol\":1294:1446  function getAnswerHashSalt(uint8 data,bytes32 salt) public view returns(bytes32){... */\n      swap3\n      swap2\n      pop\n      pop\n      jump\t// out\n        /* \"commit-reveal.sol\":97:119  uint8 public max = 100 */\n    tag_16:\n      0x00\n      dup1\n      sload\n      swap1\n      0x0100\n      exp\n      swap1\n      div\n      0xff\n      and\n      dup2\n      jump\t// out\n        /* \"commit-reveal.sol\":1169:1290  function Hash(uint8 data) public view returns(bytes32) {... */\n    tag_22:\n        /* \"commit-reveal.sol\":1215:1222  bytes32 */\n      0x00\n        /* \"commit-reveal.sol\":1272:1276  this */\n      address\n        /* \"commit-reveal.sol\":1279:1283  data */\n      dup3\n        /* \"commit-reveal.sol\":1247:1284  abi.encodePacked(address(this), data) */\n      add(0x20, mload(0x40))\n      tag_41\n      swap3\n      swap2\n      swap1\n      tag_42\n      jump\t// in\n    tag_41:\n      mload(0x40)\n      0x20\n      dup2\n      dup4\n      sub\n      sub\n      dup2\n      mstore\n      swap1\n      0x40\n      mstore\n        /* \"commit-reveal.sol\":1237:1285  keccak256(abi.encodePacked(address(this), data)) */\n      dup1\n      mload\n      swap1\n      0x20\n      add\n      keccak256\n        /* \"commit-reveal.sol\":1230:1285  return keccak256(abi.encodePacked(address(this), data)) */\n      swap1\n      pop\n        /* \"commit-reveal.sol\":1169:1290  function Hash(uint8 data) public view returns(bytes32) {... */\n      swap2\n      swap1\n      pop\n      jump\t// out\n        /* \"commit-reveal.sol\":204:246  mapping (address => Commit) public commits */\n    tag_27:\n      mstore(0x20, 0x01)\n      dup1\n      0x00\n      mstore\n      keccak256(0x00, 0x40)\n      0x00\n      swap2\n      pop\n      swap1\n      pop\n      dup1\n      0x00\n      add\n      sload\n      swap1\n      dup1\n      0x01\n      add\n      0x00\n      swap1\n      sload\n      swap1\n      0x0100\n      exp\n      swap1\n      div\n      0xffffffffffffffff\n      and\n      swap1\n      dup1\n      0x01\n      add\n      0x08\n      swap1\n      sload\n      swap1\n      0x0100\n      exp\n      swap1\n      div\n      0xff\n      and\n      swap1\n      pop\n      dup4\n      jump\t// out\n        /* \"commit-reveal.sol\":594:1099  function revealAnswer(uint8 answer,bytes32 salt) public {... */\n    tag_32:\n        /* \"commit-reveal.sol\":761:766  false */\n      0x00\n        /* \"commit-reveal.sol\":731:766  commits[msg.sender].revealed==false */\n      iszero\n      iszero\n        /* \"commit-reveal.sol\":731:738  commits */\n      0x01\n        /* \"commit-reveal.sol\":731:750  commits[msg.sender] */\n      0x00\n        /* \"commit-reveal.sol\":739:749  msg.sender */\n      caller\n        /* \"commit-reveal.sol\":731:750  commits[msg.sender] */\n      0xffffffffffffffffffffffffffffffffffffffff\n      and\n      0xffffffffffffffffffffffffffffffffffffffff\n      and\n      dup2\n      mstore\n      0x20\n      add\n      swap1\n      dup2\n      mstore\n      0x20\n      add\n      0x00\n      keccak256\n        /* \"commit-reveal.sol\":731:759  commits[msg.sender].revealed */\n      0x01\n      add\n      0x08\n      swap1\n      sload\n      swap1\n      0x0100\n      exp\n      swap1\n      div\n      0xff\n      and\n        /* \"commit-reveal.sol\":731:766  commits[msg.sender].revealed==false */\n      iszero\n      iszero\n      eq\n        /* \"commit-reveal.sol\":723:814  require(commits[msg.sender].revealed==false,\"CommitReveal::revealAnswer: Already revealed\") */\n      tag_44\n      jumpi\n      mload(0x40)\n      0x08c379a000000000000000000000000000000000000000000000000000000000\n      dup2\n      mstore\n      0x04\n      add\n      tag_45\n      swap1\n      tag_46\n      jump\t// in\n    tag_45:\n      mload(0x40)\n      dup1\n      swap2\n      sub\n      swap1\n      revert\n    tag_44:\n        /* \"commit-reveal.sol\":849:853  true */\n      0x01\n        /* \"commit-reveal.sol\":820:827  commits */\n      dup1\n        /* \"commit-reveal.sol\":820:839  commits[msg.sender] */\n      0x00\n        /* \"commit-reveal.sol\":828:838  msg.sender */\n      caller\n        /* \"commit-reveal.sol\":820:839  commits[msg.sender] */\n      0xffffffffffffffffffffffffffffffffffffffff\n      and\n      0xffffffffffffffffffffffffffffffffffffffff\n      and\n      dup2\n      mstore\n      0x20\n      add\n      swap1\n      dup2\n      mstore\n      0x20\n      add\n      0x00\n      keccak256\n        /* \"commit-reveal.sol\":820:848  commits[msg.sender].revealed */\n      0x01\n      add\n      0x08\n        /* \"commit-reveal.sol\":820:853  commits[msg.sender].revealed=true */\n      0x0100\n      exp\n      dup2\n      sload\n      dup2\n      0xff\n      mul\n      not\n      and\n      swap1\n      dup4\n      iszero\n      iszero\n      mul\n      or\n      swap1\n      sstore\n      pop\n        /* \"commit-reveal.sol\":954:961  commits */\n      0x01\n        /* \"commit-reveal.sol\":954:973  commits[msg.sender] */\n      0x00\n        /* \"commit-reveal.sol\":962:972  msg.sender */\n      caller\n        /* \"commit-reveal.sol\":954:973  commits[msg.sender] */\n      0xffffffffffffffffffffffffffffffffffffffff\n      and\n      0xffffffffffffffffffffffffffffffffffffffff\n      and\n      dup2\n      mstore\n      0x20\n      add\n      swap1\n      dup2\n      mstore\n      0x20\n      add\n      0x00\n      keccak256\n        /* \"commit-reveal.sol\":954:980  commits[msg.sender].commit */\n      0x00\n      add\n      sload\n        /* \"commit-reveal.sol\":922:952  getAnswerHashSalt(answer,salt) */\n      tag_47\n        /* \"commit-reveal.sol\":940:946  answer */\n      dup4\n        /* \"commit-reveal.sol\":947:951  salt */\n      dup4\n        /* \"commit-reveal.sol\":922:939  getAnswerHashSalt */\n      tag_12\n        /* \"commit-reveal.sol\":922:952  getAnswerHashSalt(answer,salt) */\n      jump\t// in\n    tag_47:\n        /* \"commit-reveal.sol\":922:980  getAnswerHashSalt(answer,salt)==commits[msg.sender].commit */\n      eq\n        /* \"commit-reveal.sol\":914:1047  require(getAnswerHashSalt(answer,salt)==commits[msg.sender].commit,\"CommitReveal::revealAnswer: Revealed hash does not match commit\") */\n      tag_48\n      jumpi\n      mload(0x40)\n      0x08c379a000000000000000000000000000000000000000000000000000000000\n      dup2\n      mstore\n      0x04\n      add\n      tag_49\n      swap1\n      tag_50\n      jump\t// in\n    tag_49:\n      mload(0x40)\n      dup1\n      swap2\n      sub\n      swap1\n      revert\n    tag_48:\n        /* \"commit-reveal.sol\":1058:1094  RevealAnswer(msg.sender,answer,salt) */\n      0x922fd90edb9336dc8ceb5b28d6f0061822359e4a0eb0333dc9e3dbe911b2b004\n        /* \"commit-reveal.sol\":1071:1081  msg.sender */\n      caller\n        /* \"commit-reveal.sol\":1082:1088  answer */\n      dup4\n        /* \"commit-reveal.sol\":1089:1093  salt */\n      dup4\n        /* \"commit-reveal.sol\":1058:1094  RevealAnswer(msg.sender,answer,salt) */\n      mload(0x40)\n      tag_51\n      swap4\n      swap3\n      swap2\n      swap1\n      tag_52\n      jump\t// in\n    tag_51:\n      mload(0x40)\n      dup1\n      swap2\n      sub\n      swap1\n      log1\n        /* \"commit-reveal.sol\":594:1099  function revealAnswer(uint8 answer,bytes32 salt) public {... */\n      pop\n      pop\n      jump\t// out\n        /* \"commit-reveal.sol\":251:522  function commit(bytes32 dataHash) public {... */\n    tag_36:\n        /* \"commit-reveal.sol\":327:335  dataHash */\n      dup1\n        /* \"commit-reveal.sol\":298:305  commits */\n      0x01\n        /* \"commit-reveal.sol\":298:317  commits[msg.sender] */\n      0x00\n        /* \"commit-reveal.sol\":306:316  msg.sender */\n      caller\n        /* \"commit-reveal.sol\":298:317  commits[msg.sender] */\n      0xffffffffffffffffffffffffffffffffffffffff\n      and\n      0xffffffffffffffffffffffffffffffffffffffff\n      and\n      dup2\n      mstore\n      0x20\n      add\n      swap1\n      dup2\n      mstore\n      0x20\n      add\n      0x00\n      keccak256\n        /* \"commit-reveal.sol\":298:324  commits[msg.sender].commit */\n      0x00\n      add\n        /* \"commit-reveal.sol\":298:335  commits[msg.sender].commit = dataHash */\n      dup2\n      swap1\n      sstore\n      pop\n        /* \"commit-reveal.sol\":376:388  block.number */\n      number\n        /* \"commit-reveal.sol\":341:348  commits */\n      0x01\n        /* \"commit-reveal.sol\":341:360  commits[msg.sender] */\n      0x00\n        /* \"commit-reveal.sol\":349:359  msg.sender */\n      caller\n        /* \"commit-reveal.sol\":341:360  commits[msg.sender] */\n      0xffffffffffffffffffffffffffffffffffffffff\n      and\n      0xffffffffffffffffffffffffffffffffffffffff\n      and\n      dup2\n      mstore\n      0x20\n      add\n      swap1\n      dup2\n      mstore\n      0x20\n      add\n      0x00\n      keccak256\n        /* \"commit-reveal.sol\":341:366  commits[msg.sender].block */\n      0x01\n      add\n      0x00\n        /* \"commit-reveal.sol\":341:389  commits[msg.sender].block = uint64(block.number) */\n      0x0100\n      exp\n      dup2\n      sload\n      dup2\n      0xffffffffffffffff\n      mul\n      not\n      and\n      swap1\n      dup4\n      0xffffffffffffffff\n      and\n      mul\n      or\n      swap1\n      sstore\n      pop\n        /* \"commit-reveal.sol\":426:431  false */\n      0x00\n        /* \"commit-reveal.sol\":395:402  commits */\n      0x01\n        /* \"commit-reveal.sol\":395:414  commits[msg.sender] */\n      0x00\n        /* \"commit-reveal.sol\":403:413  msg.sender */\n      caller\n        /* \"commit-reveal.sol\":395:414  commits[msg.sender] */\n      0xffffffffffffffffffffffffffffffffffffffff\n      and\n      0xffffffffffffffffffffffffffffffffffffffff\n      and\n      dup2\n      mstore\n      0x20\n      add\n      swap1\n      dup2\n      mstore\n      0x20\n      add\n      0x00\n      keccak256\n        /* \"commit-reveal.sol\":395:423  commits[msg.sender].revealed */\n      0x01\n      add\n      0x08\n        /* \"commit-reveal.sol\":395:431  commits[msg.sender].revealed = false */\n      0x0100\n      exp\n      dup2\n      sload\n      dup2\n      0xff\n      mul\n      not\n      and\n      swap1\n      dup4\n      iszero\n      iszero\n      mul\n      or\n      swap1\n      sstore\n      pop\n        /* \"commit-reveal.sol\":442:517  CommitHash(msg.sender,commits[msg.sender].commit,commits[msg.sender].block) */\n      0x3c1a1f8f38335b17f751c6da4ba7d1865f26b3997535176f5080de9fad891603\n        /* \"commit-reveal.sol\":453:463  msg.sender */\n      caller\n        /* \"commit-reveal.sol\":464:471  commits */\n      0x01\n        /* \"commit-reveal.sol\":464:483  commits[msg.sender] */\n      0x00\n        /* \"commit-reveal.sol\":472:482  msg.sender */\n      caller\n        /* \"commit-reveal.sol\":464:483  commits[msg.sender] */\n      0xffffffffffffffffffffffffffffffffffffffff\n      and\n      0xffffffffffffffffffffffffffffffffffffffff\n      and\n      dup2\n      mstore\n      0x20\n      add\n      swap1\n      dup2\n      mstore\n      0x20\n      add\n      0x00\n      keccak256\n        /* \"commit-reveal.sol\":464:490  commits[msg.sender].commit */\n      0x00\n      add\n      sload\n        /* \"commit-reveal.sol\":491:498  commits */\n      0x01\n        /* \"commit-reveal.sol\":491:510  commits[msg.sender] */\n      0x00\n        /* \"commit-reveal.sol\":499:509  msg.sender */\n      caller\n        /* \"commit-reveal.sol\":491:510  commits[msg.sender] */\n      0xffffffffffffffffffffffffffffffffffffffff\n      and\n      0xffffffffffffffffffffffffffffffffffffffff\n      and\n      dup2\n      mstore\n      0x20\n      add\n      swap1\n      dup2\n      mstore\n      0x20\n      add\n      0x00\n      keccak256\n        /* \"commit-reveal.sol\":491:516  commits[msg.sender].block */\n      0x01\n      add\n      0x00\n      swap1\n      sload\n      swap1\n      0x0100\n      exp\n      swap1\n      div\n      0xffffffffffffffff\n      and\n        /* \"commit-reveal.sol\":442:517  CommitHash(msg.sender,commits[msg.sender].commit,commits[msg.sender].block) */\n      mload(0x40)\n      tag_54\n      swap4\n      swap3\n      swap2\n      swap1\n      tag_55\n      jump\t// in\n    tag_54:\n      mload(0x40)\n      dup1\n      swap2\n      sub\n      swap1\n      log1\n        /* \"commit-reveal.sol\":251:522  function commit(bytes32 dataHash) public {... */\n      pop\n      jump\t// out\n        /* \"#utility.yul\":88:205   */\n    tag_57:\n        /* \"#utility.yul\":197:198   */\n      0x00\n        /* \"#utility.yul\":194:195   */\n      dup1\n        /* \"#utility.yul\":187:199   */\n      revert\n        /* \"#utility.yul\":334:420   */\n    tag_59:\n        /* \"#utility.yul\":369:376   */\n      0x00\n        /* \"#utility.yul\":409:413   */\n      0xff\n        /* \"#utility.yul\":402:407   */\n      dup3\n        /* \"#utility.yul\":398:414   */\n      and\n        /* \"#utility.yul\":387:414   */\n      swap1\n      pop\n        /* \"#utility.yul\":334:420   */\n      swap2\n      swap1\n      pop\n      jump\t// out\n        /* \"#utility.yul\":426:544   */\n    tag_60:\n        /* \"#utility.yul\":497:519   */\n      tag_96\n        /* \"#utility.yul\":513:518   */\n      dup2\n        /* \"#utility.yul\":497:519   */\n      tag_59\n      jump\t// in\n    tag_96:\n        /* \"#utility.yul\":490:495   */\n      dup2\n        /* \"#utility.yul\":487:520   */\n      eq\n        /* \"#utility.yul\":477:538   */\n      tag_97\n      jumpi\n        /* \"#utility.yul\":534:535   */\n      0x00\n        /* \"#utility.yul\":531:532   */\n      dup1\n        /* \"#utility.yul\":524:536   */\n      revert\n        /* \"#utility.yul\":477:538   */\n    tag_97:\n        /* \"#utility.yul\":426:544   */\n      pop\n      jump\t// out\n        /* \"#utility.yul\":550:685   */\n    tag_61:\n        /* \"#utility.yul\":594:599   */\n      0x00\n        /* \"#utility.yul\":632:638   */\n      dup2\n        /* \"#utility.yul\":619:639   */\n      calldataload\n        /* \"#utility.yul\":610:639   */\n      swap1\n      pop\n        /* \"#utility.yul\":648:679   */\n      tag_99\n        /* \"#utility.yul\":673:678   */\n      dup2\n        /* \"#utility.yul\":648:679   */\n      tag_60\n      jump\t// in\n    tag_99:\n        /* \"#utility.yul\":550:685   */\n      swap3\n      swap2\n      pop\n      pop\n      jump\t// out\n        /* \"#utility.yul\":691:768   */\n    tag_62:\n        /* \"#utility.yul\":728:735   */\n      0x00\n        /* \"#utility.yul\":757:762   */\n      dup2\n        /* \"#utility.yul\":746:762   */\n      swap1\n      pop\n        /* \"#utility.yul\":691:768   */\n      swap2\n      swap1\n      pop\n      jump\t// out\n        /* \"#utility.yul\":774:896   */\n    tag_63:\n        /* \"#utility.yul\":847:871   */\n      tag_102\n        /* \"#utility.yul\":865:870   */\n      dup2\n        /* \"#utility.yul\":847:871   */\n      tag_62\n      jump\t// in\n    tag_102:\n        /* \"#utility.yul\":840:845   */\n      dup2\n        /* \"#utility.yul\":837:872   */\n      eq\n        /* \"#utility.yul\":827:890   */\n      tag_103\n      jumpi\n        /* \"#utility.yul\":886:887   */\n      0x00\n        /* \"#utility.yul\":883:884   */\n      dup1\n        /* \"#utility.yul\":876:888   */\n      revert\n        /* \"#utility.yul\":827:890   */\n    tag_103:\n        /* \"#utility.yul\":774:896   */\n      pop\n      jump\t// out\n        /* \"#utility.yul\":902:1041   */\n    tag_64:\n        /* \"#utility.yul\":948:953   */\n      0x00\n        /* \"#utility.yul\":986:992   */\n      dup2\n        /* \"#utility.yul\":973:993   */\n      calldataload\n        /* \"#utility.yul\":964:993   */\n      swap1\n      pop\n        /* \"#utility.yul\":1002:1035   */\n      tag_105\n        /* \"#utility.yul\":1029:1034   */\n      dup2\n        /* \"#utility.yul\":1002:1035   */\n      tag_63\n      jump\t// in\n    tag_105:\n        /* \"#utility.yul\":902:1041   */\n      swap3\n      swap2\n      pop\n      pop\n      jump\t// out\n        /* \"#utility.yul\":1047:1517   */\n    tag_11:\n        /* \"#utility.yul\":1113:1119   */\n      0x00\n        /* \"#utility.yul\":1121:1127   */\n      dup1\n        /* \"#utility.yul\":1170:1172   */\n      0x40\n        /* \"#utility.yul\":1158:1167   */\n      dup4\n        /* \"#utility.yul\":1149:1156   */\n      dup6\n        /* \"#utility.yul\":1145:1168   */\n      sub\n        /* \"#utility.yul\":1141:1173   */\n      slt\n        /* \"#utility.yul\":1138:1257   */\n      iszero\n      tag_107\n      jumpi\n        /* \"#utility.yul\":1176:1255   */\n      tag_108\n      tag_57\n      jump\t// in\n    tag_108:\n        /* \"#utility.yul\":1138:1257   */\n    tag_107:\n        /* \"#utility.yul\":1296:1297   */\n      0x00\n        /* \"#utility.yul\":1321:1372   */\n      tag_109\n        /* \"#utility.yul\":1364:1371   */\n      dup6\n        /* \"#utility.yul\":1355:1361   */\n      dup3\n        /* \"#utility.yul\":1344:1353   */\n      dup7\n        /* \"#utility.yul\":1340:1362   */\n      add\n        /* \"#utility.yul\":1321:1372   */\n      tag_61\n      jump\t// in\n    tag_109:\n        /* \"#utility.yul\":1311:1372   */\n      swap3\n      pop\n        /* \"#utility.yul\":1267:1382   */\n      pop\n        /* \"#utility.yul\":1421:1423   */\n      0x20\n        /* \"#utility.yul\":1447:1500   */\n      tag_110\n        /* \"#utility.yul\":1492:1499   */\n      dup6\n        /* \"#utility.yul\":1483:1489   */\n      dup3\n        /* \"#utility.yul\":1472:1481   */\n      dup7\n        /* \"#utility.yul\":1468:1490   */\n      add\n        /* \"#utility.yul\":1447:1500   */\n      tag_64\n      jump\t// in\n    tag_110:\n        /* \"#utility.yul\":1437:1500   */\n      swap2\n      pop\n        /* \"#utility.yul\":1392:1510   */\n      pop\n        /* \"#utility.yul\":1047:1517   */\n      swap3\n      pop\n      swap3\n      swap1\n      pop\n      jump\t// out\n        /* \"#utility.yul\":1523:1641   */\n    tag_65:\n        /* \"#utility.yul\":1610:1634   */\n      tag_112\n        /* \"#utility.yul\":1628:1633   */\n      dup2\n        /* \"#utility.yul\":1610:1634   */\n      tag_62\n      jump\t// in\n    tag_112:\n        /* \"#utility.yul\":1605:1608   */\n      dup3\n        /* \"#utility.yul\":1598:1635   */\n      mstore\n        /* \"#utility.yul\":1523:1641   */\n      pop\n      pop\n      jump\t// out\n        /* \"#utility.yul\":1647:1869   */\n    tag_14:\n        /* \"#utility.yul\":1740:1744   */\n      0x00\n        /* \"#utility.yul\":1778:1780   */\n      0x20\n        /* \"#utility.yul\":1767:1776   */\n      dup3\n        /* \"#utility.yul\":1763:1781   */\n      add\n        /* \"#utility.yul\":1755:1781   */\n      swap1\n      pop\n        /* \"#utility.yul\":1791:1862   */\n      tag_114\n        /* \"#utility.yul\":1859:1860   */\n      0x00\n        /* \"#utility.yul\":1848:1857   */\n      dup4\n        /* \"#utility.yul\":1844:1861   */\n      add\n        /* \"#utility.yul\":1835:1841   */\n      dup5\n        /* \"#utility.yul\":1791:1862   */\n      tag_65\n      jump\t// in\n    tag_114:\n        /* \"#utility.yul\":1647:1869   */\n      swap3\n      swap2\n      pop\n      pop\n      jump\t// out\n        /* \"#utility.yul\":1875:1987   */\n    tag_66:\n        /* \"#utility.yul\":1958:1980   */\n      tag_116\n        /* \"#utility.yul\":1974:1979   */\n      dup2\n        /* \"#utility.yul\":1958:1980   */\n      tag_59\n      jump\t// in\n    tag_116:\n        /* \"#utility.yul\":1953:1956   */\n      dup3\n        /* \"#utility.yul\":1946:1981   */\n      mstore\n        /* \"#utility.yul\":1875:1987   */\n      pop\n      pop\n      jump\t// out\n        /* \"#utility.yul\":1993:2207   */\n    tag_18:\n        /* \"#utility.yul\":2082:2086   */\n      0x00\n        /* \"#utility.yul\":2120:2122   */\n      0x20\n        /* \"#utility.yul\":2109:2118   */\n      dup3\n        /* \"#utility.yul\":2105:2123   */\n      add\n        /* \"#utility.yul\":2097:2123   */\n      swap1\n      pop\n        /* \"#utility.yul\":2133:2200   */\n      tag_118\n        /* \"#utility.yul\":2197:2198   */\n      0x00\n        /* \"#utility.yul\":2186:2195   */\n      dup4\n        /* \"#utility.yul\":2182:2199   */\n      add\n        /* \"#utility.yul\":2173:2179   */\n      dup5\n        /* \"#utility.yul\":2133:2200   */\n      tag_66\n      jump\t// in\n    tag_118:\n        /* \"#utility.yul\":1993:2207   */\n      swap3\n      swap2\n      pop\n      pop\n      jump\t// out\n        /* \"#utility.yul\":2213:2538   */\n    tag_21:\n        /* \"#utility.yul\":2270:2276   */\n      0x00\n        /* \"#utility.yul\":2319:2321   */\n      0x20\n        /* \"#utility.yul\":2307:2316   */\n      dup3\n        /* \"#utility.yul\":2298:2305   */\n      dup5\n        /* \"#utility.yul\":2294:2317   */\n      sub\n        /* \"#utility.yul\":2290:2322   */\n      slt\n        /* \"#utility.yul\":2287:2406   */\n      iszero\n      tag_120\n      jumpi\n        /* \"#utility.yul\":2325:2404   */\n      tag_121\n      tag_57\n      jump\t// in\n    tag_121:\n        /* \"#utility.yul\":2287:2406   */\n    tag_120:\n        /* \"#utility.yul\":2445:2446   */\n      0x00\n        /* \"#utility.yul\":2470:2521   */\n      tag_122\n        /* \"#utility.yul\":2513:2520   */\n      dup5\n        /* \"#utility.yul\":2504:2510   */\n      dup3\n        /* \"#utility.yul\":2493:2502   */\n      dup6\n        /* \"#utility.yul\":2489:2511   */\n      add\n        /* \"#utility.yul\":2470:2521   */\n      tag_61\n      jump\t// in\n    tag_122:\n        /* \"#utility.yul\":2460:2521   */\n      swap2\n      pop\n        /* \"#utility.yul\":2416:2531   */\n      pop\n        /* \"#utility.yul\":2213:2538   */\n      swap3\n      swap2\n      pop\n      pop\n      jump\t// out\n        /* \"#utility.yul\":2544:2670   */\n    tag_67:\n        /* \"#utility.yul\":2581:2588   */\n      0x00\n        /* \"#utility.yul\":2621:2663   */\n      0xffffffffffffffffffffffffffffffffffffffff\n        /* \"#utility.yul\":2614:2619   */\n      dup3\n        /* \"#utility.yul\":2610:2664   */\n      and\n        /* \"#utility.yul\":2599:2664   */\n      swap1\n      pop\n        /* \"#utility.yul\":2544:2670   */\n      swap2\n      swap1\n      pop\n      jump\t// out\n        /* \"#utility.yul\":2676:2772   */\n    tag_68:\n        /* \"#utility.yul\":2713:2720   */\n      0x00\n        /* \"#utility.yul\":2742:2766   */\n      tag_125\n        /* \"#utility.yul\":2760:2765   */\n      dup3\n        /* \"#utility.yul\":2742:2766   */\n      tag_67\n      jump\t// in\n    tag_125:\n        /* \"#utility.yul\":2731:2766   */\n      swap1\n      pop\n        /* \"#utility.yul\":2676:2772   */\n      swap2\n      swap1\n      pop\n      jump\t// out\n        /* \"#utility.yul\":2778:2900   */\n    tag_69:\n        /* \"#utility.yul\":2851:2875   */\n      tag_127\n        /* \"#utility.yul\":2869:2874   */\n      dup2\n        /* \"#utility.yul\":2851:2875   */\n      tag_68\n      jump\t// in\n    tag_127:\n        /* \"#utility.yul\":2844:2849   */\n      dup2\n        /* \"#utility.yul\":2841:2876   */\n      eq\n        /* \"#utility.yul\":2831:2894   */\n      tag_128\n      jumpi\n        /* \"#utility.yul\":2890:2891   */\n      0x00\n        /* \"#utility.yul\":2887:2888   */\n      dup1\n        /* \"#utility.yul\":2880:2892   */\n      revert\n        /* \"#utility.yul\":2831:2894   */\n    tag_128:\n        /* \"#utility.yul\":2778:2900   */\n      pop\n      jump\t// out\n        /* \"#utility.yul\":2906:3045   */\n    tag_70:\n        /* \"#utility.yul\":2952:2957   */\n      0x00\n        /* \"#utility.yul\":2990:2996   */\n      dup2\n        /* \"#utility.yul\":2977:2997   */\n      calldataload\n        /* \"#utility.yul\":2968:2997   */\n      swap1\n      pop\n        /* \"#utility.yul\":3006:3039   */\n      tag_130\n        /* \"#utility.yul\":3033:3038   */\n      dup2\n        /* \"#utility.yul\":3006:3039   */\n      tag_69\n      jump\t// in\n    tag_130:\n        /* \"#utility.yul\":2906:3045   */\n      swap3\n      swap2\n      pop\n      pop\n      jump\t// out\n        /* \"#utility.yul\":3051:3380   */\n    tag_26:\n        /* \"#utility.yul\":3110:3116   */\n      0x00\n        /* \"#utility.yul\":3159:3161   */\n      0x20\n        /* \"#utility.yul\":3147:3156   */\n      dup3\n        /* \"#utility.yul\":3138:3145   */\n      dup5\n        /* \"#utility.yul\":3134:3157   */\n      sub\n        /* \"#utility.yul\":3130:3162   */\n      slt\n        /* \"#utility.yul\":3127:3246   */\n      iszero\n      tag_132\n      jumpi\n        /* \"#utility.yul\":3165:3244   */\n      tag_133\n      tag_57\n      jump\t// in\n    tag_133:\n        /* \"#utility.yul\":3127:3246   */\n    tag_132:\n        /* \"#utility.yul\":3285:3286   */\n      0x00\n        /* \"#utility.yul\":3310:3363   */\n      tag_134\n        /* \"#utility.yul\":3355:3362   */\n      dup5\n        /* \"#utility.yul\":3346:3352   */\n      dup3\n        /* \"#utility.yul\":3335:3344   */\n      dup6\n        /* \"#utility.yul\":3331:3353   */\n      add\n        /* \"#utility.yul\":3310:3363   */\n      tag_70\n      jump\t// in\n    tag_134:\n        /* \"#utility.yul\":3300:3363   */\n      swap2\n      pop\n        /* \"#utility.yul\":3256:3373   */\n      pop\n        /* \"#utility.yul\":3051:3380   */\n      swap3\n      swap2\n      pop\n      pop\n      jump\t// out\n        /* \"#utility.yul\":3386:3487   */\n    tag_71:\n        /* \"#utility.yul\":3422:3429   */\n      0x00\n        /* \"#utility.yul\":3462:3480   */\n      0xffffffffffffffff\n        /* \"#utility.yul\":3455:3460   */\n      dup3\n        /* \"#utility.yul\":3451:3481   */\n      and\n        /* \"#utility.yul\":3440:3481   */\n      swap1\n      pop\n        /* \"#utility.yul\":3386:3487   */\n      swap2\n      swap1\n      pop\n      jump\t// out\n        /* \"#utility.yul\":3493:3608   */\n    tag_72:\n        /* \"#utility.yul\":3578:3601   */\n      tag_137\n        /* \"#utility.yul\":3595:3600   */\n      dup2\n        /* \"#utility.yul\":3578:3601   */\n      tag_71\n      jump\t// in\n    tag_137:\n        /* \"#utility.yul\":3573:3576   */\n      dup3\n        /* \"#utility.yul\":3566:3602   */\n      mstore\n        /* \"#utility.yul\":3493:3608   */\n      pop\n      pop\n      jump\t// out\n        /* \"#utility.yul\":3614:3704   */\n    tag_73:\n        /* \"#utility.yul\":3648:3655   */\n      0x00\n        /* \"#utility.yul\":3691:3696   */\n      dup2\n        /* \"#utility.yul\":3684:3697   */\n      iszero\n        /* \"#utility.yul\":3677:3698   */\n      iszero\n        /* \"#utility.yul\":3666:3698   */\n      swap1\n      pop\n        /* \"#utility.yul\":3614:3704   */\n      swap2\n      swap1\n      pop\n      jump\t// out\n        /* \"#utility.yul\":3710:3819   */\n    tag_74:\n        /* \"#utility.yul\":3791:3812   */\n      tag_140\n        /* \"#utility.yul\":3806:3811   */\n      dup2\n        /* \"#utility.yul\":3791:3812   */\n      tag_73\n      jump\t// in\n    tag_140:\n        /* \"#utility.yul\":3786:3789   */\n      dup3\n        /* \"#utility.yul\":3779:3813   */\n      mstore\n        /* \"#utility.yul\":3710:3819   */\n      pop\n      pop\n      jump\t// out\n        /* \"#utility.yul\":3825:4251   */\n    tag_29:\n        /* \"#utility.yul\":3966:3970   */\n      0x00\n        /* \"#utility.yul\":4004:4006   */\n      0x60\n        /* \"#utility.yul\":3993:4002   */\n      dup3\n        /* \"#utility.yul\":3989:4007   */\n      add\n        /* \"#utility.yul\":3981:4007   */\n      swap1\n      pop\n        /* \"#utility.yul\":4017:4088   */\n      tag_142\n        /* \"#utility.yul\":4085:4086   */\n      0x00\n        /* \"#utility.yul\":4074:4083   */\n      dup4\n        /* \"#utility.yul\":4070:4087   */\n      add\n        /* \"#utility.yul\":4061:4067   */\n      dup7\n        /* \"#utility.yul\":4017:4088   */\n      tag_65\n      jump\t// in\n    tag_142:\n        /* \"#utility.yul\":4098:4168   */\n      tag_143\n        /* \"#utility.yul\":4164:4166   */\n      0x20\n        /* \"#utility.yul\":4153:4162   */\n      dup4\n        /* \"#utility.yul\":4149:4167   */\n      add\n        /* \"#utility.yul\":4140:4146   */\n      dup6\n        /* \"#utility.yul\":4098:4168   */\n      tag_72\n      jump\t// in\n    tag_143:\n        /* \"#utility.yul\":4178:4244   */\n      tag_144\n        /* \"#utility.yul\":4240:4242   */\n      0x40\n        /* \"#utility.yul\":4229:4238   */\n      dup4\n        /* \"#utility.yul\":4225:4243   */\n      add\n        /* \"#utility.yul\":4216:4222   */\n      dup5\n        /* \"#utility.yul\":4178:4244   */\n      tag_74\n      jump\t// in\n    tag_144:\n        /* \"#utility.yul\":3825:4251   */\n      swap5\n      swap4\n      pop\n      pop\n      pop\n      pop\n      jump\t// out\n        /* \"#utility.yul\":4257:4586   */\n    tag_35:\n        /* \"#utility.yul\":4316:4322   */\n      0x00\n        /* \"#utility.yul\":4365:4367   */\n      0x20\n        /* \"#utility.yul\":4353:4362   */\n      dup3\n        /* \"#utility.yul\":4344:4351   */\n      dup5\n        /* \"#utility.yul\":4340:4363   */\n      sub\n        /* \"#utility.yul\":4336:4368   */\n      slt\n        /* \"#utility.yul\":4333:4452   */\n      iszero\n      tag_146\n      jumpi\n        /* \"#utility.yul\":4371:4450   */\n      tag_147\n      tag_57\n      jump\t// in\n    tag_147:\n        /* \"#utility.yul\":4333:4452   */\n    tag_146:\n        /* \"#utility.yul\":4491:4492   */\n      0x00\n        /* \"#utility.yul\":4516:4569   */\n      tag_148\n        /* \"#utility.yul\":4561:4568   */\n      dup5\n        /* \"#utility.yul\":4552:4558   */\n      dup3\n        /* \"#utility.yul\":4541:4550   */\n      dup6\n        /* \"#utility.yul\":4537:4559   */\n      add\n        /* \"#utility.yul\":4516:4569   */\n      tag_64\n      jump\t// in\n    tag_148:\n        /* \"#utility.yul\":4506:4569   */\n      swap2\n      pop\n        /* \"#utility.yul\":4462:4579   */\n      pop\n        /* \"#utility.yul\":4257:4586   */\n      swap3\n      swap2\n      pop\n      pop\n      jump\t// out\n        /* \"#utility.yul\":4592:4686   */\n    tag_75:\n        /* \"#utility.yul\":4625:4633   */\n      0x00\n        /* \"#utility.yul\":4673:4678   */\n      dup2\n        /* \"#utility.yul\":4669:4671   */\n      0x60\n        /* \"#utility.yul\":4665:4679   */\n      shl\n        /* \"#utility.yul\":4644:4679   */\n      swap1\n      pop\n        /* \"#utility.yul\":4592:4686   */\n      swap2\n      swap1\n      pop\n      jump\t// out\n        /* \"#utility.yul\":4692:4786   */\n    tag_76:\n        /* \"#utility.yul\":4731:4738   */\n      0x00\n        /* \"#utility.yul\":4760:4780   */\n      tag_151\n        /* \"#utility.yul\":4774:4779   */\n      dup3\n        /* \"#utility.yul\":4760:4780   */\n      tag_75\n      jump\t// in\n    tag_151:\n        /* \"#utility.yul\":4749:4780   */\n      swap1\n      pop\n        /* \"#utility.yul\":4692:4786   */\n      swap2\n      swap1\n      pop\n      jump\t// out\n        /* \"#utility.yul\":4792:4892   */\n    tag_77:\n        /* \"#utility.yul\":4831:4838   */\n      0x00\n        /* \"#utility.yul\":4860:4886   */\n      tag_153\n        /* \"#utility.yul\":4880:4885   */\n      dup3\n        /* \"#utility.yul\":4860:4886   */\n      tag_76\n      jump\t// in\n    tag_153:\n        /* \"#utility.yul\":4849:4886   */\n      swap1\n      pop\n        /* \"#utility.yul\":4792:4892   */\n      swap2\n      swap1\n      pop\n      jump\t// out\n        /* \"#utility.yul\":4898:5055   */\n    tag_78:\n        /* \"#utility.yul\":5003:5048   */\n      tag_155\n        /* \"#utility.yul\":5023:5047   */\n      tag_156\n        /* \"#utility.yul\":5041:5046   */\n      dup3\n        /* \"#utility.yul\":5023:5047   */\n      tag_68\n      jump\t// in\n    tag_156:\n        /* \"#utility.yul\":5003:5048   */\n      tag_77\n      jump\t// in\n    tag_155:\n        /* \"#utility.yul\":4998:5001   */\n      dup3\n        /* \"#utility.yul\":4991:5049   */\n      mstore\n        /* \"#utility.yul\":4898:5055   */\n      pop\n      pop\n      jump\t// out\n        /* \"#utility.yul\":5061:5157   */\n    tag_79:\n        /* \"#utility.yul\":5095:5103   */\n      0x00\n        /* \"#utility.yul\":5144:5149   */\n      dup2\n        /* \"#utility.yul\":5139:5142   */\n      0xf8\n        /* \"#utility.yul\":5135:5150   */\n      shl\n        /* \"#utility.yul\":5114:5150   */\n      swap1\n      pop\n        /* \"#utility.yul\":5061:5157   */\n      swap2\n      swap1\n      pop\n      jump\t// out\n        /* \"#utility.yul\":5163:5256   */\n    tag_80:\n        /* \"#utility.yul\":5200:5207   */\n      0x00\n        /* \"#utility.yul\":5229:5250   */\n      tag_159\n        /* \"#utility.yul\":5244:5249   */\n      dup3\n        /* \"#utility.yul\":5229:5250   */\n      tag_79\n      jump\t// in\n    tag_159:\n        /* \"#utility.yul\":5218:5250   */\n      swap1\n      pop\n        /* \"#utility.yul\":5163:5256   */\n      swap2\n      swap1\n      pop\n      jump\t// out\n        /* \"#utility.yul\":5262:5411   */\n    tag_81:\n        /* \"#utility.yul\":5363:5404   */\n      tag_161\n        /* \"#utility.yul\":5381:5403   */\n      tag_162\n        /* \"#utility.yul\":5397:5402   */\n      dup3\n        /* \"#utility.yul\":5381:5403   */\n      tag_59\n      jump\t// in\n    tag_162:\n        /* \"#utility.yul\":5363:5404   */\n      tag_80\n      jump\t// in\n    tag_161:\n        /* \"#utility.yul\":5358:5361   */\n      dup3\n        /* \"#utility.yul\":5351:5405   */\n      mstore\n        /* \"#utility.yul\":5262:5411   */\n      pop\n      pop\n      jump\t// out\n        /* \"#utility.yul\":5417:5496   */\n    tag_82:\n        /* \"#utility.yul\":5456:5463   */\n      0x00\n        /* \"#utility.yul\":5485:5490   */\n      dup2\n        /* \"#utility.yul\":5474:5490   */\n      swap1\n      pop\n        /* \"#utility.yul\":5417:5496   */\n      swap2\n      swap1\n      pop\n      jump\t// out\n        /* \"#utility.yul\":5502:5659   */\n    tag_83:\n        /* \"#utility.yul\":5607:5652   */\n      tag_165\n        /* \"#utility.yul\":5627:5651   */\n      tag_166\n        /* \"#utility.yul\":5645:5650   */\n      dup3\n        /* \"#utility.yul\":5627:5651   */\n      tag_62\n      jump\t// in\n    tag_166:\n        /* \"#utility.yul\":5607:5652   */\n      tag_82\n      jump\t// in\n    tag_165:\n        /* \"#utility.yul\":5602:5605   */\n      dup3\n        /* \"#utility.yul\":5595:5653   */\n      mstore\n        /* \"#utility.yul\":5502:5659   */\n      pop\n      pop\n      jump\t// out\n        /* \"#utility.yul\":5665:6194   */\n    tag_39:\n        /* \"#utility.yul\":5829:5832   */\n      0x00\n        /* \"#utility.yul\":5844:5919   */\n      tag_168\n        /* \"#utility.yul\":5915:5918   */\n      dup3\n        /* \"#utility.yul\":5906:5912   */\n      dup7\n        /* \"#utility.yul\":5844:5919   */\n      tag_78\n      jump\t// in\n    tag_168:\n        /* \"#utility.yul\":5944:5946   */\n      0x14\n        /* \"#utility.yul\":5939:5942   */\n      dup3\n        /* \"#utility.yul\":5935:5947   */\n      add\n        /* \"#utility.yul\":5928:5947   */\n      swap2\n      pop\n        /* \"#utility.yul\":5957:6028   */\n      tag_169\n        /* \"#utility.yul\":6024:6027   */\n      dup3\n        /* \"#utility.yul\":6015:6021   */\n      dup6\n        /* \"#utility.yul\":5957:6028   */\n      tag_81\n      jump\t// in\n    tag_169:\n        /* \"#utility.yul\":6053:6054   */\n      0x01\n        /* \"#utility.yul\":6048:6051   */\n      dup3\n        /* \"#utility.yul\":6044:6055   */\n      add\n        /* \"#utility.yul\":6037:6055   */\n      swap2\n      pop\n        /* \"#utility.yul\":6065:6140   */\n      tag_170\n        /* \"#utility.yul\":6136:6139   */\n      dup3\n        /* \"#utility.yul\":6127:6133   */\n      dup5\n        /* \"#utility.yul\":6065:6140   */\n      tag_83\n      jump\t// in\n    tag_170:\n        /* \"#utility.yul\":6165:6167   */\n      0x20\n        /* \"#utility.yul\":6160:6163   */\n      dup3\n        /* \"#utility.yul\":6156:6168   */\n      add\n        /* \"#utility.yul\":6149:6168   */\n      swap2\n      pop\n        /* \"#utility.yul\":6185:6188   */\n      dup2\n        /* \"#utility.yul\":6178:6188   */\n      swap1\n      pop\n        /* \"#utility.yul\":5665:6194   */\n      swap5\n      swap4\n      pop\n      pop\n      pop\n      pop\n      jump\t// out\n        /* \"#utility.yul\":6200:6588   */\n    tag_42:\n        /* \"#utility.yul\":6336:6339   */\n      0x00\n        /* \"#utility.yul\":6351:6426   */\n      tag_172\n        /* \"#utility.yul\":6422:6425   */\n      dup3\n        /* \"#utility.yul\":6413:6419   */\n      dup6\n        /* \"#utility.yul\":6351:6426   */\n      tag_78\n      jump\t// in\n    tag_172:\n        /* \"#utility.yul\":6451:6453   */\n      0x14\n        /* \"#utility.yul\":6446:6449   */\n      dup3\n        /* \"#utility.yul\":6442:6454   */\n      add\n        /* \"#utility.yul\":6435:6454   */\n      swap2\n      pop\n        /* \"#utility.yul\":6464:6535   */\n      tag_173\n        /* \"#utility.yul\":6531:6534   */\n      dup3\n        /* \"#utility.yul\":6522:6528   */\n      dup5\n        /* \"#utility.yul\":6464:6535   */\n      tag_81\n      jump\t// in\n    tag_173:\n        /* \"#utility.yul\":6560:6561   */\n      0x01\n        /* \"#utility.yul\":6555:6558   */\n      dup3\n        /* \"#utility.yul\":6551:6562   */\n      add\n        /* \"#utility.yul\":6544:6562   */\n      swap2\n      pop\n        /* \"#utility.yul\":6579:6582   */\n      dup2\n        /* \"#utility.yul\":6572:6582   */\n      swap1\n      pop\n        /* \"#utility.yul\":6200:6588   */\n      swap4\n      swap3\n      pop\n      pop\n      pop\n      jump\t// out\n        /* \"#utility.yul\":6594:6763   */\n    tag_84:\n        /* \"#utility.yul\":6678:6689   */\n      0x00\n        /* \"#utility.yul\":6712:6718   */\n      dup3\n        /* \"#utility.yul\":6707:6710   */\n      dup3\n        /* \"#utility.yul\":6700:6719   */\n      mstore\n        /* \"#utility.yul\":6752:6756   */\n      0x20\n        /* \"#utility.yul\":6747:6750   */\n      dup3\n        /* \"#utility.yul\":6743:6757   */\n      add\n        /* \"#utility.yul\":6728:6757   */\n      swap1\n      pop\n        /* \"#utility.yul\":6594:6763   */\n      swap3\n      swap2\n      pop\n      pop\n      jump\t// out\n        /* \"#utility.yul\":6769:7000   */\n    tag_85:\n        /* \"#utility.yul\":6909:6943   */\n      0x436f6d6d697452657665616c3a3a72657665616c416e737765723a20416c7265\n        /* \"#utility.yul\":6905:6906   */\n      0x00\n        /* \"#utility.yul\":6897:6903   */\n      dup3\n        /* \"#utility.yul\":6893:6907   */\n      add\n        /* \"#utility.yul\":6886:6944   */\n      mstore\n        /* \"#utility.yul\":6978:6992   */\n      0x6164792072657665616c65640000000000000000000000000000000000000000\n        /* \"#utility.yul\":6973:6975   */\n      0x20\n        /* \"#utility.yul\":6965:6971   */\n      dup3\n        /* \"#utility.yul\":6961:6976   */\n      add\n        /* \"#utility.yul\":6954:6993   */\n      mstore\n        /* \"#utility.yul\":6769:7000   */\n      pop\n      jump\t// out\n        /* \"#utility.yul\":7006:7372   */\n    tag_86:\n        /* \"#utility.yul\":7148:7151   */\n      0x00\n        /* \"#utility.yul\":7169:7236   */\n      tag_177\n        /* \"#utility.yul\":7233:7235   */\n      0x2c\n        /* \"#utility.yul\":7228:7231   */\n      dup4\n        /* \"#utility.yul\":7169:7236   */\n      tag_84\n      jump\t// in\n    tag_177:\n        /* \"#utility.yul\":7162:7236   */\n      swap2\n      pop\n        /* \"#utility.yul\":7245:7338   */\n      tag_178\n        /* \"#utility.yul\":7334:7337   */\n      dup3\n        /* \"#utility.yul\":7245:7338   */\n      tag_85\n      jump\t// in\n    tag_178:\n        /* \"#utility.yul\":7363:7365   */\n      0x40\n        /* \"#utility.yul\":7358:7361   */\n      dup3\n        /* \"#utility.yul\":7354:7366   */\n      add\n        /* \"#utility.yul\":7347:7366   */\n      swap1\n      pop\n        /* \"#utility.yul\":7006:7372   */\n      swap2\n      swap1\n      pop\n      jump\t// out\n        /* \"#utility.yul\":7378:7797   */\n    tag_46:\n        /* \"#utility.yul\":7544:7548   */\n      0x00\n        /* \"#utility.yul\":7582:7584   */\n      0x20\n        /* \"#utility.yul\":7571:7580   */\n      dup3\n        /* \"#utility.yul\":7567:7585   */\n      add\n        /* \"#utility.yul\":7559:7585   */\n      swap1\n      pop\n        /* \"#utility.yul\":7631:7640   */\n      dup2\n        /* \"#utility.yul\":7625:7629   */\n      dup2\n        /* \"#utility.yul\":7621:7641   */\n      sub\n        /* \"#utility.yul\":7617:7618   */\n      0x00\n        /* \"#utility.yul\":7606:7615   */\n      dup4\n        /* \"#utility.yul\":7602:7619   */\n      add\n        /* \"#utility.yul\":7595:7642   */\n      mstore\n        /* \"#utility.yul\":7659:7790   */\n      tag_180\n        /* \"#utility.yul\":7785:7789   */\n      dup2\n        /* \"#utility.yul\":7659:7790   */\n      tag_86\n      jump\t// in\n    tag_180:\n        /* \"#utility.yul\":7651:7790   */\n      swap1\n      pop\n        /* \"#utility.yul\":7378:7797   */\n      swap2\n      swap1\n      pop\n      jump\t// out\n        /* \"#utility.yul\":7803:8053   */\n    tag_87:\n        /* \"#utility.yul\":7943:7977   */\n      0x436f6d6d697452657665616c3a3a72657665616c416e737765723a2052657665\n        /* \"#utility.yul\":7939:7940   */\n      0x00\n        /* \"#utility.yul\":7931:7937   */\n      dup3\n        /* \"#utility.yul\":7927:7941   */\n      add\n        /* \"#utility.yul\":7920:7978   */\n      mstore\n        /* \"#utility.yul\":8012:8045   */\n      0x616c6564206861736820646f6573206e6f74206d6174636820636f6d6d697400\n        /* \"#utility.yul\":8007:8009   */\n      0x20\n        /* \"#utility.yul\":7999:8005   */\n      dup3\n        /* \"#utility.yul\":7995:8010   */\n      add\n        /* \"#utility.yul\":7988:8046   */\n      mstore\n        /* \"#utility.yul\":7803:8053   */\n      pop\n      jump\t// out\n        /* \"#utility.yul\":8059:8425   */\n    tag_88:\n        /* \"#utility.yul\":8201:8204   */\n      0x00\n        /* \"#utility.yul\":8222:8289   */\n      tag_183\n        /* \"#utility.yul\":8286:8288   */\n      0x3f\n        /* \"#utility.yul\":8281:8284   */\n      dup4\n        /* \"#utility.yul\":8222:8289   */\n      tag_84\n      jump\t// in\n    tag_183:\n        /* \"#utility.yul\":8215:8289   */\n      swap2\n      pop\n        /* \"#utility.yul\":8298:8391   */\n      tag_184\n        /* \"#utility.yul\":8387:8390   */\n      dup3\n        /* \"#utility.yul\":8298:8391   */\n      tag_87\n      jump\t// in\n    tag_184:\n        /* \"#utility.yul\":8416:8418   */\n      0x40\n        /* \"#utility.yul\":8411:8414   */\n      dup3\n        /* \"#utility.yul\":8407:8419   */\n      add\n        /* \"#utility.yul\":8400:8419   */\n      swap1\n      pop\n        /* \"#utility.yul\":8059:8425   */\n      swap2\n      swap1\n      pop\n      jump\t// out\n        /* \"#utility.yul\":8431:8850   */\n    tag_50:\n        /* \"#utility.yul\":8597:8601   */\n      0x00\n        /* \"#utility.yul\":8635:8637   */\n      0x20\n        /* \"#utility.yul\":8624:8633   */\n      dup3\n        /* \"#utility.yul\":8620:8638   */\n      add\n        /* \"#utility.yul\":8612:8638   */\n      swap1\n      pop\n        /* \"#utility.yul\":8684:8693   */\n      dup2\n        /* \"#utility.yul\":8678:8682   */\n      dup2\n        /* \"#utility.yul\":8674:8694   */\n      sub\n        /* \"#utility.yul\":8670:8671   */\n      0x00\n        /* \"#utility.yul\":8659:8668   */\n      dup4\n        /* \"#utility.yul\":8655:8672   */\n      add\n        /* \"#utility.yul\":8648:8695   */\n      mstore\n        /* \"#utility.yul\":8712:8843   */\n      tag_186\n        /* \"#utility.yul\":8838:8842   */\n      dup2\n        /* \"#utility.yul\":8712:8843   */\n      tag_88\n      jump\t// in\n    tag_186:\n        /* \"#utility.yul\":8704:8843   */\n      swap1\n      pop\n        /* \"#utility.yul\":8431:8850   */\n      swap2\n      swap1\n      pop\n      jump\t// out\n        /* \"#utility.yul\":8856:8974   */\n    tag_89:\n        /* \"#utility.yul\":8943:8967   */\n      tag_188\n        /* \"#utility.yul\":8961:8966   */\n      dup2\n        /* \"#utility.yul\":8943:8967   */\n      tag_68\n      jump\t// in\n    tag_188:\n        /* \"#utility.yul\":8938:8941   */\n      dup3\n        /* \"#utility.yul\":8931:8968   */\n      mstore\n        /* \"#utility.yul\":8856:8974   */\n      pop\n      pop\n      jump\t// out\n        /* \"#utility.yul\":8980:9414   */\n    tag_52:\n        /* \"#utility.yul\":9125:9129   */\n      0x00\n        /* \"#utility.yul\":9163:9165   */\n      0x60\n        /* \"#utility.yul\":9152:9161   */\n      dup3\n        /* \"#utility.yul\":9148:9166   */\n      add\n        /* \"#utility.yul\":9140:9166   */\n      swap1\n      pop\n        /* \"#utility.yul\":9176:9247   */\n      tag_190\n        /* \"#utility.yul\":9244:9245   */\n      0x00\n        /* \"#utility.yul\":9233:9242   */\n      dup4\n        /* \"#utility.yul\":9229:9246   */\n      add\n        /* \"#utility.yul\":9220:9226   */\n      dup7\n        /* \"#utility.yul\":9176:9247   */\n      tag_89\n      jump\t// in\n    tag_190:\n        /* \"#utility.yul\":9257:9325   */\n      tag_191\n        /* \"#utility.yul\":9321:9323   */\n      0x20\n        /* \"#utility.yul\":9310:9319   */\n      dup4\n        /* \"#utility.yul\":9306:9324   */\n      add\n        /* \"#utility.yul\":9297:9303   */\n      dup6\n        /* \"#utility.yul\":9257:9325   */\n      tag_66\n      jump\t// in\n    tag_191:\n        /* \"#utility.yul\":9335:9407   */\n      tag_192\n        /* \"#utility.yul\":9403:9405   */\n      0x40\n        /* \"#utility.yul\":9392:9401   */\n      dup4\n        /* \"#utility.yul\":9388:9406   */\n      add\n        /* \"#utility.yul\":9379:9385   */\n      dup5\n        /* \"#utility.yul\":9335:9407   */\n      tag_65\n      jump\t// in\n    tag_192:\n        /* \"#utility.yul\":8980:9414   */\n      swap5\n      swap4\n      pop\n      pop\n      pop\n      pop\n      jump\t// out\n        /* \"#utility.yul\":9420:9858   */\n    tag_55:\n        /* \"#utility.yul\":9567:9571   */\n      0x00\n        /* \"#utility.yul\":9605:9607   */\n      0x60\n        /* \"#utility.yul\":9594:9603   */\n      dup3\n        /* \"#utility.yul\":9590:9608   */\n      add\n        /* \"#utility.yul\":9582:9608   */\n      swap1\n      pop\n        /* \"#utility.yul\":9618:9689   */\n      tag_194\n        /* \"#utility.yul\":9686:9687   */\n      0x00\n        /* \"#utility.yul\":9675:9684   */\n      dup4\n        /* \"#utility.yul\":9671:9688   */\n      add\n        /* \"#utility.yul\":9662:9668   */\n      dup7\n        /* \"#utility.yul\":9618:9689   */\n      tag_89\n      jump\t// in\n    tag_194:\n        /* \"#utility.yul\":9699:9771   */\n      tag_195\n        /* \"#utility.yul\":9767:9769   */\n      0x20\n        /* \"#utility.yul\":9756:9765   */\n      dup4\n        /* \"#utility.yul\":9752:9770   */\n      add\n        /* \"#utility.yul\":9743:9749   */\n      dup6\n        /* \"#utility.yul\":9699:9771   */\n      tag_65\n      jump\t// in\n    tag_195:\n        /* \"#utility.yul\":9781:9851   */\n      tag_196\n        /* \"#utility.yul\":9847:9849   */\n      0x40\n        /* \"#utility.yul\":9836:9845   */\n      dup4\n        /* \"#utility.yul\":9832:9850   */\n      add\n        /* \"#utility.yul\":9823:9829   */\n      dup5\n        /* \"#utility.yul\":9781:9851   */\n      tag_72\n      jump\t// in\n    tag_196:\n        /* \"#utility.yul\":9420:9858   */\n      swap5\n      swap4\n      pop\n      pop\n      pop\n      pop\n      jump\t// out\n\n    auxdata: 0xa2646970667358221220618b4fea2855a98fba7580aa6caead4f87bf14a7a76a2b510a01094ec2d6cdec64736f6c63430008180033\n}\n",
				"bytecode": {
					"linkReferences": {},
					"object": "608060405260645f806101000a81548160ff021916908360ff160217905550348015610029575f80fd5b50610aaf806100375f395ff3fe608060405234801561000f575f80fd5b5060043610610060575f3560e01c80631a4ec7ba146100645780636ac5db19146100945780636f384b8e146100b25780637b43a8e6146100e25780639f9a4df314610114578063f14fcbc814610130575b5f80fd5b61007e600480360381019061007991906105fa565b61014c565b60405161008b9190610647565b60405180910390f35b61009c610180565b6040516100a9919061066f565b60405180910390f35b6100cc60048036038101906100c79190610688565b610190565b6040516100d99190610647565b60405180910390f35b6100fc60048036038101906100f7919061070d565b6101c1565b60405161010b93929190610774565b60405180910390f35b61012e600480360381019061012991906105fa565b610207565b005b61014a600480360381019061014591906107a9565b6103bb565b005b5f3083836040516020016101629392919061086d565b60405160208183030381529060405280519060200120905092915050565b5f8054906101000a900460ff1681565b5f30826040516020016101a49291906108a9565b604051602081830303815290604052805190602001209050919050565b6001602052805f5260405f205f91509050805f015490806001015f9054906101000a900467ffffffffffffffff16908060010160089054906101000a900460ff16905083565b5f151560015f3373ffffffffffffffffffffffffffffffffffffffff1673ffffffffffffffffffffffffffffffffffffffff1681526020019081526020015f2060010160089054906101000a900460ff1615151461029a576040517f08c379a000000000000000000000000000000000000000000000000000000000815260040161029190610954565b60405180910390fd5b6001805f3373ffffffffffffffffffffffffffffffffffffffff1673ffffffffffffffffffffffffffffffffffffffff1681526020019081526020015f2060010160086101000a81548160ff02191690831515021790555060015f3373ffffffffffffffffffffffffffffffffffffffff1673ffffffffffffffffffffffffffffffffffffffff1681526020019081526020015f205f015461033c838361014c565b1461037c576040517f08c379a0000000000000000000000000000000000000000000000000000000008152600401610373906109e2565b60405180910390fd5b7f922fd90edb9336dc8ceb5b28d6f0061822359e4a0eb0333dc9e3dbe911b2b0043383836040516103af93929190610a0f565b60405180910390a15050565b8060015f3373ffffffffffffffffffffffffffffffffffffffff1673ffffffffffffffffffffffffffffffffffffffff1681526020019081526020015f205f01819055504360015f3373ffffffffffffffffffffffffffffffffffffffff1673ffffffffffffffffffffffffffffffffffffffff1681526020019081526020015f206001015f6101000a81548167ffffffffffffffff021916908367ffffffffffffffff1602179055505f60015f3373ffffffffffffffffffffffffffffffffffffffff1673ffffffffffffffffffffffffffffffffffffffff1681526020019081526020015f2060010160086101000a81548160ff0219169083151502179055507f3c1a1f8f38335b17f751c6da4ba7d1865f26b3997535176f5080de9fad8916033360015f3373ffffffffffffffffffffffffffffffffffffffff1673ffffffffffffffffffffffffffffffffffffffff1681526020019081526020015f205f015460015f3373ffffffffffffffffffffffffffffffffffffffff1673ffffffffffffffffffffffffffffffffffffffff1681526020019081526020015f206001015f9054906101000a900467ffffffffffffffff1660405161058293929190610a44565b60405180910390a150565b5f80fd5b5f60ff82169050919050565b6105a681610591565b81146105b0575f80fd5b50565b5f813590506105c18161059d565b92915050565b5f819050919050565b6105d9816105c7565b81146105e3575f80fd5b50565b5f813590506105f4816105d0565b92915050565b5f80604083850312156106105761060f61058d565b5b5f61061d858286016105b3565b925050602061062e858286016105e6565b9150509250929050565b610641816105c7565b82525050565b5f60208201905061065a5f830184610638565b92915050565b61066981610591565b82525050565b5f6020820190506106825f830184610660565b92915050565b5f6020828403121561069d5761069c61058d565b5b5f6106aa848285016105b3565b91505092915050565b5f73ffffffffffffffffffffffffffffffffffffffff82169050919050565b5f6106dc826106b3565b9050919050565b6106ec816106d2565b81146106f6575f80fd5b50565b5f81359050610707816106e3565b92915050565b5f602082840312156107225761072161058d565b5b5f61072f848285016106f9565b91505092915050565b5f67ffffffffffffffff82169050919050565b61075481610738565b82525050565b5f8115159050919050565b61076e8161075a565b82525050565b5f6060820190506107875f830186610638565b610794602083018561074b565b6107a16040830184610765565b949350505050565b5f602082840312156107be576107bd61058d565b5b5f6107cb848285016105e6565b91505092915050565b5f8160601b9050919050565b5f6107ea826107d4565b9050919050565b5f6107fb826107e0565b9050919050565b61081361080e826106d2565b6107f1565b82525050565b5f8160f81b9050919050565b5f61082f82610819565b9050919050565b61084761084282610591565b610825565b82525050565b5f819050919050565b610867610862826105c7565b61084d565b82525050565b5f6108788286610802565b6014820191506108888285610836565b6001820191506108988284610856565b602082019150819050949350505050565b5f6108b48285610802565b6014820191506108c48284610836565b6001820191508190509392505050565b5f82825260208201905092915050565b7f436f6d6d697452657665616c3a3a72657665616c416e737765723a20416c72655f8201527f6164792072657665616c65640000000000000000000000000000000000000000602082015250565b5f61093e602c836108d4565b9150610949826108e4565b604082019050919050565b5f6020820190508181035f83015261096b81610932565b9050919050565b7f436f6d6d697452657665616c3a3a72657665616c416e737765723a20526576655f8201527f616c6564206861736820646f6573206e6f74206d6174636820636f6d6d697400602082015250565b5f6109cc603f836108d4565b91506109d782610972565b604082019050919050565b5f6020820190508181035f8301526109f9816109c0565b9050919050565b610a09816106d2565b82525050565b5f606082019050610a225f830186610a00565b610a2f6020830185610660565b610a3c6040830184610638565b949350505050565b5f606082019050610a575f830186610a00565b610a646020830185610638565b610a71604083018461074b565b94935050505056fea2646970667358221220618b4fea2855a98fba7580aa6caead4f87bf14a7a76a2b510a01094ec2d6cdec64736f6c63430008180033",
					"opcodes": "PUSH1 0x80 PUSH1 0x40 MSTORE PUSH1 0x64 PUSH0 DUP1 PUSH2 0x100 EXP DUP2 SLOAD DUP2 PUSH1 0xFF MUL NOT AND SWAP1 DUP4 PUSH1 0xFF AND MUL OR SWAP1 SSTORE POP CALLVALUE DUP1 ISZERO PUSH2 0x29 JUMPI PUSH0 DUP1 REVERT JUMPDEST POP PUSH2 0xAAF DUP1 PUSH2 0x37 PUSH0 CODECOPY PUSH0 RETURN INVALID PUSH1 0x80 PUSH1 0x40 MSTORE CALLVALUE DUP1 ISZERO PUSH2 0xF JUMPI PUSH0 DUP1 REVERT JUMPDEST POP PUSH1 0x4 CALLDATASIZE LT PUSH2 0x60 JUMPI PUSH0 CALLDATALOAD PUSH1 0xE0 SHR DUP1 PUSH4 0x1A4EC7BA EQ PUSH2 0x64 JUMPI DUP1 PUSH4 0x6AC5DB19 EQ PUSH2 0x94 JUMPI DUP1 PUSH4 0x6F384B8E EQ PUSH2 0xB2 JUMPI DUP1 PUSH4 0x7B43A8E6 EQ PUSH2 0xE2 JUMPI DUP1 PUSH4 0x9F9A4DF3 EQ PUSH2 0x114 JUMPI DUP1 PUSH4 0xF14FCBC8 EQ PUSH2 0x130 JUMPI JUMPDEST PUSH0 DUP1 REVERT JUMPDEST PUSH2 0x7E PUSH1 0x4 DUP1 CALLDATASIZE SUB DUP2 ADD SWAP1 PUSH2 0x79 SWAP2 SWAP1 PUSH2 0x5FA JUMP JUMPDEST PUSH2 0x14C JUMP JUMPDEST PUSH1 0x40 MLOAD PUSH2 0x8B SWAP2 SWAP1 PUSH2 0x647 JUMP JUMPDEST PUSH1 0x40 MLOAD DUP1 SWAP2 SUB SWAP1 RETURN JUMPDEST PUSH2 0x9C PUSH2 0x180 JUMP JUMPDEST PUSH1 0x40 MLOAD PUSH2 0xA9 SWAP2 SWAP1 PUSH2 0x66F JUMP JUMPDEST PUSH1 0x40 MLOAD DUP1 SWAP2 SUB SWAP1 RETURN JUMPDEST PUSH2 0xCC PUSH1 0x4 DUP1 CALLDATASIZE SUB DUP2 ADD SWAP1 PUSH2 0xC7 SWAP2 SWAP1 PUSH2 0x688 JUMP JUMPDEST PUSH2 0x190 JUMP JUMPDEST PUSH1 0x40 MLOAD PUSH2 0xD9 SWAP2 SWAP1 PUSH2 0x647 JUMP JUMPDEST PUSH1 0x40 MLOAD DUP1 SWAP2 SUB SWAP1 RETURN JUMPDEST PUSH2 0xFC PUSH1 0x4 DUP1 CALLDATASIZE SUB DUP2 ADD SWAP1 PUSH2 0xF7 SWAP2 SWAP1 PUSH2 0x70D JUMP JUMPDEST PUSH2 0x1C1 JUMP JUMPDEST PUSH1 0x40 MLOAD PUSH2 0x10B SWAP4 SWAP3 SWAP2 SWAP1 PUSH2 0x774 JUMP JUMPDEST PUSH1 0x40 MLOAD DUP1 SWAP2 SUB SWAP1 RETURN JUMPDEST PUSH2 0x12E PUSH1 0x4 DUP1 CALLDATASIZE SUB DUP2 ADD SWAP1 PUSH2 0x129 SWAP2 SWAP1 PUSH2 0x5FA JUMP JUMPDEST PUSH2 0x207 JUMP JUMPDEST STOP JUMPDEST PUSH2 0x14A PUSH1 0x4 DUP1 CALLDATASIZE SUB DUP2 ADD SWAP1 PUSH2 0x145 SWAP2 SWAP1 PUSH2 0x7A9 JUMP JUMPDEST PUSH2 0x3BB JUMP JUMPDEST STOP JUMPDEST PUSH0 ADDRESS DUP4 DUP4 PUSH1 0x40 MLOAD PUSH1 0x20 ADD PUSH2 0x162 SWAP4 SWAP3 SWAP2 SWAP1 PUSH2 0x86D JUMP JUMPDEST PUSH1 0x40 MLOAD PUSH1 0x20 DUP2 DUP4 SUB SUB DUP2 MSTORE SWAP1 PUSH1 0x40 MSTORE DUP1 MLOAD SWAP1 PUSH1 0x20 ADD KECCAK256 SWAP1 POP SWAP3 SWAP2 POP POP JUMP JUMPDEST PUSH0 DUP1 SLOAD SWAP1 PUSH2 0x100 EXP SWAP1 DIV PUSH1 0xFF AND DUP2 JUMP JUMPDEST PUSH0 ADDRESS DUP3 PUSH1 0x40 MLOAD PUSH1 0x20 ADD PUSH2 0x1A4 SWAP3 SWAP2 SWAP1 PUSH2 0x8A9 JUMP JUMPDEST PUSH1 0x40 MLOAD PUSH1 0x20 DUP2 DUP4 SUB SUB DUP2 MSTORE SWAP1 PUSH1 0x40 MSTORE DUP1 MLOAD SWAP1 PUSH1 0x20 ADD KECCAK256 SWAP1 POP SWAP2 SWAP1 POP JUMP JUMPDEST PUSH1 0x1 PUSH1 0x20 MSTORE DUP1 PUSH0 MSTORE PUSH1 0x40 PUSH0 KECCAK256 PUSH0 SWAP2 POP SWAP1 POP DUP1 PUSH0 ADD SLOAD SWAP1 DUP1 PUSH1 0x1 ADD PUSH0 SWAP1 SLOAD SWAP1 PUSH2 0x100 EXP SWAP1 DIV PUSH8 0xFFFFFFFFFFFFFFFF AND SWAP1 DUP1 PUSH1 0x1 ADD PUSH1 0x8 SWAP1 SLOAD SWAP1 PUSH2 0x100 EXP SWAP1 DIV PUSH1 0xFF AND SWAP1 POP DUP4 JUMP JUMPDEST PUSH0 ISZERO ISZERO PUSH1 0x1 PUSH0 CALLER PUSH20 0xFFFFFFFFFFFFFFFFFFFFFFFFFFFFFFFFFFFFFFFF AND PUSH20 0xFFFFFFFFFFFFFFFFFFFFFFFFFFFFFFFFFFFFFFFF AND DUP2 MSTORE PUSH1 0x20 ADD SWAP1 DUP2 MSTORE PUSH1 0x20 ADD PUSH0 KECCAK256 PUSH1 0x1 ADD PUSH1 0x8 SWAP1 SLOAD SWAP1 PUSH2 0x100 EXP SWAP1 DIV PUSH1 0xFF AND ISZERO ISZERO EQ PUSH2 0x29A JUMPI PUSH1 0x40 MLOAD PUSH32 0x8C379A000000000000000000000000000000000000000000000000000000000 DUP2 MSTORE PUSH1 0x4 ADD PUSH2 0x291 SWAP1 PUSH2 0x954 JUMP JUMPDEST PUSH1 0x40 MLOAD DUP1 SWAP2 SUB SWAP1 REVERT JUMPDEST PUSH1 0x1 DUP1 PUSH0 CALLER PUSH20 0xFFFFFFFFFFFFFFFFFFFFFFFFFFFFFFFFFFFFFFFF AND PUSH20 0xFFFFFFFFFFFFFFFFFFFFFFFFFFFFFFFFFFFFFFFF AND DUP2 MSTORE PUSH1 0x20 ADD SWAP1 DUP2 MSTORE PUSH1 0x20 ADD PUSH0 KECCAK256 PUSH1 0x1 ADD PUSH1 0x8 PUSH2 0x100 EXP DUP2 SLOAD DUP2 PUSH1 0xFF MUL NOT AND SWAP1 DUP4 ISZERO ISZERO MUL OR SWAP1 SSTORE POP PUSH1 0x1 PUSH0 CALLER PUSH20 0xFFFFFFFFFFFFFFFFFFFFFFFFFFFFFFFFFFFFFFFF AND PUSH20 0xFFFFFFFFFFFFFFFFFFFFFFFFFFFFFFFFFFFFFFFF AND DUP2 MSTORE PUSH1 0x20 ADD SWAP1 DUP2 MSTORE PUSH1 0x20 ADD PUSH0 KECCAK256 PUSH0 ADD SLOAD PUSH2 0x33C DUP4 DUP4 PUSH2 0x14C JUMP JUMPDEST EQ PUSH2 0x37C JUMPI PUSH1 0x40 MLOAD PUSH32 0x8C379A000000000000000000000000000000000000000000000000000000000 DUP2 MSTORE PUSH1 0x4 ADD PUSH2 0x373 SWAP1 PUSH2 0x9E2 JUMP JUMPDEST PUSH1 0x40 MLOAD DUP1 SWAP2 SUB SWAP1 REVERT JUMPDEST PUSH32 0x922FD90EDB9336DC8CEB5B28D6F0061822359E4A0EB0333DC9E3DBE911B2B004 CALLER DUP4 DUP4 PUSH1 0x40 MLOAD PUSH2 0x3AF SWAP4 SWAP3 SWAP2 SWAP1 PUSH2 0xA0F JUMP JUMPDEST PUSH1 0x40 MLOAD DUP1 SWAP2 SUB SWAP1 LOG1 POP POP JUMP JUMPDEST DUP1 PUSH1 0x1 PUSH0 CALLER PUSH20 0xFFFFFFFFFFFFFFFFFFFFFFFFFFFFFFFFFFFFFFFF AND PUSH20 0xFFFFFFFFFFFFFFFFFFFFFFFFFFFFFFFFFFFFFFFF AND DUP2 MSTORE PUSH1 0x20 ADD SWAP1 DUP2 MSTORE PUSH1 0x20 ADD PUSH0 KECCAK256 PUSH0 ADD DUP2 SWAP1 SSTORE POP NUMBER PUSH1 0x1 PUSH0 CALLER PUSH20 0xFFFFFFFFFFFFFFFFFFFFFFFFFFFFFFFFFFFFFFFF AND PUSH20 0xFFFFFFFFFFFFFFFFFFFFFFFFFFFFFFFFFFFFFFFF AND DUP2 MSTORE PUSH1 0x20 ADD SWAP1 DUP2 MSTORE PUSH1 0x20 ADD PUSH0 KECCAK256 PUSH1 0x1 ADD PUSH0 PUSH2 0x100 EXP DUP2 SLOAD DUP2 PUSH8 0xFFFFFFFFFFFFFFFF MUL NOT AND SWAP1 DUP4 PUSH8 0xFFFFFFFFFFFFFFFF AND MUL OR SWAP1 SSTORE POP PUSH0 PUSH1 0x1 PUSH0 CALLER PUSH20 0xFFFFFFFFFFFFFFFFFFFFFFFFFFFFFFFFFFFFFFFF AND PUSH20 0xFFFFFFFFFFFFFFFFFFFFFFFFFFFFFFFFFFFFFFFF AND DUP2 MSTORE PUSH1 0x20 ADD SWAP1 DUP2 MSTORE PUSH1 0x20 ADD PUSH0 KECCAK256 PUSH1 0x1 ADD PUSH1 0x8 PUSH2 0x100 EXP DUP2 SLOAD DUP2 PUSH1 0xFF MUL NOT AND SWAP1 DUP4 ISZERO ISZERO MUL OR SWAP1 SSTORE POP PUSH32 0x3C1A1F8F38335B17F751C6DA4BA7D1865F26B3997535176F5080DE9FAD891603 CALLER PUSH1 0x1 PUSH0 CALLER PUSH20 0xFFFFFFFFFFFFFFFFFFFFFFFFFFFFFFFFFFFFFFFF AND PUSH20 0xFFFFFFFFFFFFFFFFFFFFFFFFFFFFFFFFFFFFFFFF AND DUP2 MSTORE PUSH1 0x20 ADD SWAP1 DUP2 MSTORE PUSH1 0x20 ADD PUSH0 KECCAK256 PUSH0 ADD SLOAD PUSH1 0x1 PUSH0 CALLER PUSH20 0xFFFFFFFFFFFFFFFFFFFFFFFFFFFFFFFFFFFFFFFF AND PUSH20 0xFFFFFFFFFFFFFFFFFFFFFFFFFFFFFFFFFFFFFFFF AND DUP2 MSTORE PUSH1 0x20 ADD SWAP1 DUP2 MSTORE PUSH1 0x20 ADD PUSH0 KECCAK256 PUSH1 0x1 ADD PUSH0 SWAP1 SLOAD SWAP1 PUSH2 0x100 EXP SWAP1 DIV PUSH8 0xFFFFFFFFFFFFFFFF AND PUSH1 0x40 MLOAD PUSH2 0x582 SWAP4 SWAP3 SWAP2 SWAP1 PUSH2 0xA44 JUMP JUMPDEST PUSH1 0x40 MLOAD DUP1 SWAP2 SUB SWAP1 LOG1 POP JUMP JUMPDEST PUSH0 DUP1 REVERT JUMPDEST PUSH0 PUSH1 0xFF DUP3 AND SWAP1 POP SWAP2 SWAP1 POP JUMP JUMPDEST PUSH2 0x5A6 DUP2 PUSH2 0x591 JUMP JUMPDEST DUP2 EQ PUSH2 0x5B0 JUMPI PUSH0 DUP1 REVERT JUMPDEST POP JUMP JUMPDEST PUSH0 DUP2 CALLDATALOAD SWAP1 POP PUSH2 0x5C1 DUP2 PUSH2 0x59D JUMP JUMPDEST SWAP3 SWAP2 POP POP JUMP JUMPDEST PUSH0 DUP2 SWAP1 POP SWAP2 SWAP1 POP JUMP JUMPDEST PUSH2 0x5D9 DUP2 PUSH2 0x5C7 JUMP JUMPDEST DUP2 EQ PUSH2 0x5E3 JUMPI PUSH0 DUP1 REVERT JUMPDEST POP JUMP JUMPDEST PUSH0 DUP2 CALLDATALOAD SWAP1 POP PUSH2 0x5F4 DUP2 PUSH2 0x5D0 JUMP JUMPDEST SWAP3 SWAP2 POP POP JUMP JUMPDEST PUSH0 DUP1 PUSH1 0x40 DUP4 DUP6 SUB SLT ISZERO PUSH2 0x610 JUMPI PUSH2 0x60F PUSH2 0x58D JUMP JUMPDEST JUMPDEST PUSH0 PUSH2 0x61D DUP6 DUP3 DUP7 ADD PUSH2 0x5B3 JUMP JUMPDEST SWAP3 POP POP PUSH1 0x20 PUSH2 0x62E DUP6 DUP3 DUP7 ADD PUSH2 0x5E6 JUMP JUMPDEST SWAP2 POP POP SWAP3 POP SWAP3 SWAP1 POP JUMP JUMPDEST PUSH2 0x641 DUP2 PUSH2 0x5C7 JUMP JUMPDEST DUP3 MSTORE POP POP JUMP JUMPDEST PUSH0 PUSH1 0x20 DUP3 ADD SWAP1 POP PUSH2 0x65A PUSH0 DUP4 ADD DUP5 PUSH2 0x638 JUMP JUMPDEST SWAP3 SWAP2 POP POP JUMP JUMPDEST PUSH2 0x669 DUP2 PUSH2 0x591 JUMP JUMPDEST DUP3 MSTORE POP POP JUMP JUMPDEST PUSH0 PUSH1 0x20 DUP3 ADD SWAP1 POP PUSH2 0x682 PUSH0 DUP4 ADD DUP5 PUSH2 0x660 JUMP JUMPDEST SWAP3 SWAP2 POP POP JUMP JUMPDEST PUSH0 PUSH1 0x20 DUP3 DUP5 SUB SLT ISZERO PUSH2 0x69D JUMPI PUSH2 0x69C PUSH2 0x58D JUMP JUMPDEST JUMPDEST PUSH0 PUSH2 0x6AA DUP5 DUP3 DUP6 ADD PUSH2 0x5B3 JUMP JUMPDEST SWAP2 POP POP SWAP3 SWAP2 POP POP JUMP JUMPDEST PUSH0 PUSH20 0xFFFFFFFFFFFFFFFFFFFFFFFFFFFFFFFFFFFFFFFF DUP3 AND SWAP1 POP SWAP2 SWAP1 POP JUMP JUMPDEST PUSH0 PUSH2 0x6DC DUP3 PUSH2 0x6B3 JUMP JUMPDEST SWAP1 POP SWAP2 SWAP1 POP JUMP JUMPDEST PUSH2 0x6EC DUP2 PUSH2 0x6D2 JUMP JUMPDEST DUP2 EQ PUSH2 0x6F6 JUMPI PUSH0 DUP1 REVERT JUMPDEST POP JUMP JUMPDEST PUSH0 DUP2 CALLDATALOAD SWAP1 POP PUSH2 0x707 DUP2 PUSH2 0x6E3 JUMP JUMPDEST SWAP3 SWAP2 POP POP JUMP JUMPDEST PUSH0 PUSH1 0x20 DUP3 DUP5 SUB SLT ISZERO PUSH2 0x722 JUMPI PUSH2 0x721 PUSH2 0x58D JUMP JUMPDEST JUMPDEST PUSH0 PUSH2 0x72F DUP5 DUP3 DUP6 ADD PUSH2 0x6F9 JUMP JUMPDEST SWAP2 POP POP SWAP3 SWAP2 POP POP JUMP JUMPDEST PUSH0 PUSH8 0xFFFFFFFFFFFFFFFF DUP3 AND SWAP1 POP SWAP2 SWAP1 POP JUMP JUMPDEST PUSH2 0x754 DUP2 PUSH2 0x738 JUMP JUMPDEST DUP3 MSTORE POP POP JUMP JUMPDEST PUSH0 DUP2 ISZERO ISZERO SWAP1 POP SWAP2 SWAP1 POP JUMP JUMPDEST PUSH2 0x76E DUP2 PUSH2 0x75A JUMP JUMPDEST DUP3 MSTORE POP POP JUMP JUMPDEST PUSH0 PUSH1 0x60 DUP3 ADD SWAP1 POP PUSH2 0x787 PUSH0 DUP4 ADD DUP7 PUSH2 0x638 JUMP JUMPDEST PUSH2 0x794 PUSH1 0x20 DUP4 ADD DUP6 PUSH2 0x74B JUMP JUMPDEST PUSH2 0x7A1 PUSH1 0x40 DUP4 ADD DUP5 PUSH2 0x765 JUMP JUMPDEST SWAP5 SWAP4 POP POP POP POP JUMP JUMPDEST PUSH0 PUSH1 0x20 DUP3 DUP5 SUB SLT ISZERO PUSH2 0x7BE JUMPI PUSH2 0x7BD PUSH2 0x58D JUMP JUMPDEST JUMPDEST PUSH0 PUSH2 0x7CB DUP5 DUP3 DUP6 ADD PUSH2 0x5E6 JUMP JUMPDEST SWAP2 POP POP SWAP3 SWAP2 POP POP JUMP JUMPDEST PUSH0 DUP2 PUSH1 0x60 SHL SWAP1 POP SWAP2 SWAP1 POP JUMP JUMPDEST PUSH0 PUSH2 0x7EA DUP3 PUSH2 0x7D4 JUMP JUMPDEST SWAP1 POP SWAP2 SWAP1 POP JUMP JUMPDEST PUSH0 PUSH2 0x7FB DUP3 PUSH2 0x7E0 JUMP JUMPDEST SWAP1 POP SWAP2 SWAP1 POP JUMP JUMPDEST PUSH2 0x813 PUSH2 0x80E DUP3 PUSH2 0x6D2 JUMP JUMPDEST PUSH2 0x7F1 JUMP JUMPDEST DUP3 MSTORE POP POP JUMP JUMPDEST PUSH0 DUP2 PUSH1 0xF8 SHL SWAP1 POP SWAP2 SWAP1 POP JUMP JUMPDEST PUSH0 PUSH2 0x82F DUP3 PUSH2 0x819 JUMP JUMPDEST SWAP1 POP SWAP2 SWAP1 POP JUMP JUMPDEST PUSH2 0x847 PUSH2 0x842 DUP3 PUSH2 0x591 JUMP JUMPDEST PUSH2 0x825 JUMP JUMPDEST DUP3 MSTORE POP POP JUMP JUMPDEST PUSH0 DUP2 SWAP1 POP SWAP2 SWAP1 POP JUMP JUMPDEST PUSH2 0x867 PUSH2 0x862 DUP3 PUSH2 0x5C7 JUMP JUMPDEST PUSH2 0x84D JUMP JUMPDEST DUP3 MSTORE POP POP JUMP JUMPDEST PUSH0 PUSH2 0x878 DUP3 DUP7 PUSH2 0x802 JUMP JUMPDEST PUSH1 0x14 DUP3 ADD SWAP2 POP PUSH2 0x888 DUP3 DUP6 PUSH2 0x836 JUMP JUMPDEST PUSH1 0x1 DUP3 ADD SWAP2 POP PUSH2 0x898 DUP3 DUP5 PUSH2 0x856 JUMP JUMPDEST PUSH1 0x20 DUP3 ADD SWAP2 POP DUP2 SWAP1 POP SWAP5 SWAP4 POP POP POP POP JUMP JUMPDEST PUSH0 PUSH2 0x8B4 DUP3 DUP6 PUSH2 0x802 JUMP JUMPDEST PUSH1 0x14 DUP3 ADD SWAP2 POP PUSH2 0x8C4 DUP3 DUP5 PUSH2 0x836 JUMP JUMPDEST PUSH1 0x1 DUP3 ADD SWAP2 POP DUP2 SWAP1 POP SWAP4 SWAP3 POP POP POP JUMP JUMPDEST PUSH0 DUP3 DUP3 MSTORE PUSH1 0x20 DUP3 ADD SWAP1 POP SWAP3 SWAP2 POP POP JUMP JUMPDEST PUSH32 0x436F6D6D697452657665616C3A3A72657665616C416E737765723A20416C7265 PUSH0 DUP3 ADD MSTORE PUSH32 0x6164792072657665616C65640000000000000000000000000000000000000000 PUSH1 0x20 DUP3 ADD MSTORE POP JUMP JUMPDEST PUSH0 PUSH2 0x93E PUSH1 0x2C DUP4 PUSH2 0x8D4 JUMP JUMPDEST SWAP2 POP PUSH2 0x949 DUP3 PUSH2 0x8E4 JUMP JUMPDEST PUSH1 0x40 DUP3 ADD SWAP1 POP SWAP2 SWAP1 POP JUMP JUMPDEST PUSH0 PUSH1 0x20 DUP3 ADD SWAP1 POP DUP2 DUP2 SUB PUSH0 DUP4 ADD MSTORE PUSH2 0x96B DUP2 PUSH2 0x932 JUMP JUMPDEST SWAP1 POP SWAP2 SWAP1 POP JUMP JUMPDEST PUSH32 0x436F6D6D697452657665616C3A3A72657665616C416E737765723A2052657665 PUSH0 DUP3 ADD MSTORE PUSH32 0x616C6564206861736820646F6573206E6F74206D6174636820636F6D6D697400 PUSH1 0x20 DUP3 ADD MSTORE POP JUMP JUMPDEST PUSH0 PUSH2 0x9CC PUSH1 0x3F DUP4 PUSH2 0x8D4 JUMP JUMPDEST SWAP2 POP PUSH2 0x9D7 DUP3 PUSH2 0x972 JUMP JUMPDEST PUSH1 0x40 DUP3 ADD SWAP1 POP SWAP2 SWAP1 POP JUMP JUMPDEST PUSH0 PUSH1 0x20 DUP3 ADD SWAP1 POP DUP2 DUP2 SUB PUSH0 DUP4 ADD MSTORE PUSH2 0x9F9 DUP2 PUSH2 0x9C0 JUMP JUMPDEST SWAP1 POP SWAP2 SWAP1 POP JUMP JUMPDEST PUSH2 0xA09 DUP2 PUSH2 0x6D2 JUMP JUMPDEST DUP3 MSTORE POP POP JUMP JUMPDEST PUSH0 PUSH1 0x60 DUP3 ADD SWAP1 POP PUSH2 0xA22 PUSH0 DUP4 ADD DUP7 PUSH2 0xA00 JUMP JUMPDEST PUSH2 0xA2F PUSH1 0x20 DUP4 ADD DUP6 PUSH2 0x660 JUMP JUMPDEST PUSH2 0xA3C PUSH1 0x40 DUP4 ADD DUP5 PUSH2 0x638 JUMP JUMPDEST SWAP5 SWAP4 POP POP POP POP JUMP JUMPDEST PUSH0 PUSH1 0x60 DUP3 ADD SWAP1 POP PUSH2 0xA57 PUSH0 DUP4 ADD DUP7 PUSH2 0xA00 JUMP JUMPDEST PUSH2 0xA64 PUSH1 0x20 DUP4 ADD DUP6 PUSH2 0x638 JUMP JUMPDEST PUSH2 0xA71 PUSH1 0x40 DUP4 ADD DUP5 PUSH2 0x74B JUMP JUMPDEST SWAP5 SWAP4 POP POP POP POP JUMP INVALID LOG2 PUSH5 0x6970667358 0x22 SLT KECCAK256 PUSH2 0x8B4F 0xEA 0x28 SSTORE 0xA9 DUP16 0xBA PUSH22 0x80AA6CAEAD4F87BF14A7A76A2B510A01094EC2D6CDEC PUSH5 0x736F6C6343 STOP ADDMOD XOR STOP CALLER "
				},
				"gasEstimates": {
					"creation": {
						"codeDepositCost": "547000",
						"executionCost": "24845",
						"totalCost": "571845"
					},
					"external": {
						"Hash(uint8)": "infinite",
						"commit(bytes32)": "infinite",
						"commits(address)": "7414",
						"getAnswerHashSalt(uint8,bytes32)": "infinite",
						"max()": "2463",
						"revealAnswer(uint8,bytes32)": "infinite"
					}
				},
				"methodIdentifiers": {
					"Hash(uint8)": "6f384b8e",
					"commit(bytes32)": "f14fcbc8",
					"commits(address)": "7b43a8e6",
					"getAnswerHashSalt(uint8,bytes32)": "1a4ec7ba",
					"max()": "6ac5db19",
					"revealAnswer(uint8,bytes32)": "9f9a4df3"
				}
			},
			"storageLayout": {
				"storage": [
					{
						"astId": 4,
						"contract": "commit-reveal.sol:CommitReveal",
						"label": "max",
						"offset": 0,
						"slot": "0",
						"type": "t_uint8"
					},
					{
						"astId": 16,
						"contract": "commit-reveal.sol:CommitReveal",
						"label": "commits",
						"offset": 0,
						"slot": "1",
						"type": "t_mapping(t_address,t_struct(Commit)11_storage)"
					}
				],
				"types": {
					"t_address": {
						"encoding": "inplace",
						"label": "address",
						"numberOfBytes": "20"
					},
					"t_bool": {
						"encoding": "inplace",
						"label": "bool",
						"numberOfBytes": "1"
					},
					"t_bytes32": {
						"encoding": "inplace",
						"label": "bytes32",
						"numberOfBytes": "32"
					},
					"t_mapping(t_address,t_struct(Commit)11_storage)": {
						"encoding": "mapping",
						"key": "t_address",
						"label": "mapping(address => struct CommitReveal.Commit)",
						"numberOfBytes": "32",
						"value": "t_struct(Commit)11_storage"
					},
					"t_struct(Commit)11_storage": {
						"encoding": "inplace",
						"label": "struct CommitReveal.Commit",
						"members": [
							{
								"astId": 6,
								"contract": "commit-reveal.sol:CommitReveal",
								"label": "commit",
								"offset": 0,
								"slot": "0",
								"type": "t_bytes32"
							},
							{
								"astId": 8,
								"contract": "commit-reveal.sol:CommitReveal",
								"label": "block",
								"offset": 0,
								"slot": "1",
								"type": "t_uint64"
							},
							{
								"astId": 10,
								"contract": "commit-reveal.sol:CommitReveal",
								"label": "revealed",
								"offset": 8,
								"slot": "1",
								"type": "t_bool"
							}
						],
						"numberOfBytes": "64"
					},
					"t_uint64": {
						"encoding": "inplace",
						"label": "uint64",
						"numberOfBytes": "8"
					},
					"t_uint8": {
						"encoding": "inplace",
						"label": "uint8",
						"numberOfBytes": "1"
					}
				}
			},
			"userdoc": {
				"kind": "user",
				"methods": {},
				"version": 1
			}
		}
	}
}